{
  "contractName": "Donate",
  "abi": [
    {
      "constant": true,
      "inputs": [],
      "name": "total",
      "outputs": [
        {
          "internalType": "uint256",
          "name": "",
          "type": "uint256"
        }
      ],
      "payable": false,
      "stateMutability": "view",
      "type": "function"
    },
    {
      "constant": true,
      "inputs": [],
      "name": "user",
      "outputs": [
        {
          "internalType": "address payable",
          "name": "",
          "type": "address"
        }
      ],
      "payable": false,
      "stateMutability": "view",
      "type": "function"
    },
    {
      "constant": false,
      "inputs": [],
      "name": "donates",
      "outputs": [],
      "payable": true,
      "stateMutability": "payable",
      "type": "function"
    }
  ],
  "bytecode": "0x6080604052600060015534801561001557600080fd5b50610126806100256000396000f3fe60806040526004361060305760003560e01c80632ddbd13a1460355780634f8632ba14605d57806379c6293b1460b1575b600080fd5b348015604057600080fd5b50604760b9565b6040518082815260200191505060405180910390f35b348015606857600080fd5b50606f60bf565b604051808273ffffffffffffffffffffffffffffffffffffffff1673ffffffffffffffffffffffffffffffffffffffff16815260200191505060405180910390f35b60b760e4565b005b60015481565b6000809054906101000a900473ffffffffffffffffffffffffffffffffffffffff1681565b346001540160018190555056fea265627a7a723158208b7fe1d6aefdd0b04ec71ec3140052ac52745847377b0c8279683f433bd6046a64736f6c63430005100032",
  "source": "// SPDX-License-Identifier: MIT\npragma solidity >=0.4.22 <0.8.19;\n\n\ncontract Donate{\n    address payable  public user;\n\n    uint256 public total=0;\n\n     function donates() payable public {\n        total=total+msg.value;\n     }  \n}",
  "sourcePath": "/home/prakash/carp/contracts/Donate.sol",
  "compiler": {
    "name": "solc",
    "version": "0.5.16+commit.9c3226ce.Emscripten.clang"
  },
  "schemaVersion": "3.4.6",
  "updatedAt": "2022-04-13T18:04:24.217Z",
  "networkType": "ethereum",
  "devdoc": {
    "methods": {}
  },
  "userdoc": {
    "methods": {}
  }
}